{
  "transactions": [
    {
      "hash": "0x5f416581ab447bce4da45614b078b1c889ee5ce0951360e2dd39b5dc12259fc8",
      "transactionType": "CALL",
      "contractName": null,
      "contractAddress": "0x779877a7b0d9e8603169ddbd7836e478b4624789",
      "function": "transferAndCall(address,uint256,bytes)",
      "arguments": [
        "0x9DdfaCa8183c41ad55329BdeeD9F6A8d53168B1B",
        "1000000000000000000",
        "0x6bd0a88efe9d14bf2ea3885e0f98b92dbfb4836f70eda78486b46d7dbc8c7a35"
      ],
      "transaction": {
        "from": "0x3706a57b29615f9af745470990e52f420ffd1fb5",
        "to": "0x779877a7b0d9e8603169ddbd7836e478b4624789",
        "gas": "0x14cbb",
        "value": "0x0",
        "input": "0x4000aea00000000000000000000000009ddfaca8183c41ad55329bdeed9f6a8d53168b1b0000000000000000000000000000000000000000000000000de0b6b3a7640000000000000000000000000000000000000000000000000000000000000000006000000000000000000000000000000000000000000000000000000000000000206bd0a88efe9d14bf2ea3885e0f98b92dbfb4836f70eda78486b46d7dbc8c7a35",
        "nonce": "0x20",
        "chainId": "0xaa36a7"
      },
      "additionalContracts": [],
      "isFixedGasLimit": false
    }
  ],
  "receipts": [
    {
      "status": "0x1",
      "cumulativeGasUsed": "0x1efb51c",
      "logs": [
        {
          "address": "0x779877a7b0d9e8603169ddbd7836e478b4624789",
          "topics": [
            "0xddf252ad1be2c89b69c2b068fc378daa952ba7f163c4a11628f55a4df523b3ef",
            "0x0000000000000000000000003706a57b29615f9af745470990e52f420ffd1fb5",
            "0x0000000000000000000000009ddfaca8183c41ad55329bdeed9f6a8d53168b1b"
          ],
          "data": "0x0000000000000000000000000000000000000000000000000de0b6b3a7640000",
          "blockHash": "0x9b8a157bb7367e96d6e5e6a472ece20ef73b98b3c7d87c743ebb4341f3fa7812",
          "blockNumber": "0x85d0f6",
          "blockTimestamp": "0x687659a0",
          "transactionHash": "0x5f416581ab447bce4da45614b078b1c889ee5ce0951360e2dd39b5dc12259fc8",
          "transactionIndex": "0x148",
          "logIndex": "0x235",
          "removed": false
        },
        {
          "address": "0x779877a7b0d9e8603169ddbd7836e478b4624789",
          "topics": [
            "0xe19260aff97b920c7df27010903aeb9c8d2be5d310a2c67824cf3f15396e4c16",
            "0x0000000000000000000000003706a57b29615f9af745470990e52f420ffd1fb5",
            "0x0000000000000000000000009ddfaca8183c41ad55329bdeed9f6a8d53168b1b"
          ],
          "data": "0x0000000000000000000000000000000000000000000000000de0b6b3a7640000000000000000000000000000000000000000000000000000000000000000004000000000000000000000000000000000000000000000000000000000000000206bd0a88efe9d14bf2ea3885e0f98b92dbfb4836f70eda78486b46d7dbc8c7a35",
          "blockHash": "0x9b8a157bb7367e96d6e5e6a472ece20ef73b98b3c7d87c743ebb4341f3fa7812",
          "blockNumber": "0x85d0f6",
          "blockTimestamp": "0x687659a0",
          "transactionHash": "0x5f416581ab447bce4da45614b078b1c889ee5ce0951360e2dd39b5dc12259fc8",
          "transactionIndex": "0x148",
          "logIndex": "0x236",
          "removed": false
        },
        {
          "address": "0x9ddfaca8183c41ad55329bdeed9f6a8d53168b1b",
          "topics": [
            "0x1ced9348ff549fceab2ac57cd3a9de38edaaab274b725ee82c23e8fc8c4eec7a",
            "0x6bd0a88efe9d14bf2ea3885e0f98b92dbfb4836f70eda78486b46d7dbc8c7a35"
          ],
          "data": "0x0000000000000000000000000000000000000000000000008ac7230489e8000000000000000000000000000000000000000000000000000098a7d9b8314c0000",
          "blockHash": "0x9b8a157bb7367e96d6e5e6a472ece20ef73b98b3c7d87c743ebb4341f3fa7812",
          "blockNumber": "0x85d0f6",
          "blockTimestamp": "0x687659a0",
          "transactionHash": "0x5f416581ab447bce4da45614b078b1c889ee5ce0951360e2dd39b5dc12259fc8",
          "transactionIndex": "0x148",
          "logIndex": "0x237",
          "removed": false
        }
      ],
      "logsBloom": "0x00000004000000000000000000000000000000000020000000000000020000000000000000000000000080000000000000000000000000200000000000000000000000000000000000000008000000000000000000000000000020000020000008000000000000000000000000000000000000000000000000000010000040000000000000000000000000010000800000000020000000000008000000000000000000000000000000000000010000000000000000004008000004000000000000000002000000800000000000000000000000000000000100000000000000000010000000000000800000000000000000000000000000000000000000000000",
      "type": "0x2",
      "transactionHash": "0x5f416581ab447bce4da45614b078b1c889ee5ce0951360e2dd39b5dc12259fc8",
      "transactionIndex": "0x148",
      "blockHash": "0x9b8a157bb7367e96d6e5e6a472ece20ef73b98b3c7d87c743ebb4341f3fa7812",
      "blockNumber": "0x85d0f6",
      "gasUsed": "0xf0e5",
      "effectiveGasPrice": "0x13bd63d",
      "from": "0x3706a57b29615f9af745470990e52f420ffd1fb5",
      "to": "0x779877a7b0d9e8603169ddbd7836e478b4624789",
      "contractAddress": null
    }
  ],
  "libraries": [],
  "pending": [],
  "returns": {},
  "timestamp": 1752586655,
  "chain": 11155111,
  "commit": null
}